{
  "contractName": "CertificateVerification",
  "abi": [
    {
      "anonymous": false,
      "inputs": [
        {
          "indexed": true,
          "internalType": "bytes32",
          "name": "certHash",
          "type": "bytes32"
        },
        {
          "indexed": false,
          "internalType": "string",
          "name": "studentName",
          "type": "string"
        },
        {
          "indexed": false,
          "internalType": "string",
          "name": "course",
          "type": "string"
        },
        {
          "indexed": false,
          "internalType": "string",
          "name": "institution",
          "type": "string"
        },
        {
          "indexed": false,
          "internalType": "uint256",
          "name": "issueDate",
          "type": "uint256"
        }
      ],
      "name": "CertificateIssued",
      "type": "event"
    },
    {
      "anonymous": false,
      "inputs": [
        {
          "indexed": true,
          "internalType": "bytes32",
          "name": "certHash",
          "type": "bytes32"
        }
      ],
      "name": "CertificateRevoked",
      "type": "event"
    },
    {
      "inputs": [
        {
          "internalType": "bytes32",
          "name": "",
          "type": "bytes32"
        }
      ],
      "name": "certificates",
      "outputs": [
        {
          "internalType": "string",
          "name": "studentName",
          "type": "string"
        },
        {
          "internalType": "string",
          "name": "course",
          "type": "string"
        },
        {
          "internalType": "string",
          "name": "institution",
          "type": "string"
        },
        {
          "internalType": "uint256",
          "name": "issueDate",
          "type": "uint256"
        },
        {
          "internalType": "bool",
          "name": "isValid",
          "type": "bool"
        }
      ],
      "stateMutability": "view",
      "type": "function",
      "constant": true
    },
    {
      "inputs": [
        {
          "internalType": "string",
          "name": "_studentName",
          "type": "string"
        },
        {
          "internalType": "string",
          "name": "_course",
          "type": "string"
        },
        {
          "internalType": "string",
          "name": "_institution",
          "type": "string"
        },
        {
          "internalType": "uint256",
          "name": "_issueDate",
          "type": "uint256"
        }
      ],
      "name": "issueCertificate",
      "outputs": [
        {
          "internalType": "bytes32",
          "name": "",
          "type": "bytes32"
        }
      ],
      "stateMutability": "nonpayable",
      "type": "function"
    },
    {
      "inputs": [
        {
          "internalType": "bytes32",
          "name": "_certHash",
          "type": "bytes32"
        }
      ],
      "name": "verifyCertificate",
      "outputs": [
        {
          "internalType": "bool",
          "name": "",
          "type": "bool"
        },
        {
          "internalType": "string",
          "name": "",
          "type": "string"
        },
        {
          "internalType": "string",
          "name": "",
          "type": "string"
        },
        {
          "internalType": "string",
          "name": "",
          "type": "string"
        },
        {
          "internalType": "uint256",
          "name": "",
          "type": "uint256"
        }
      ],
      "stateMutability": "view",
      "type": "function",
      "constant": true
    },
    {
      "inputs": [
        {
          "internalType": "bytes32",
          "name": "_certHash",
          "type": "bytes32"
        }
      ],
      "name": "revokeCertificate",
      "outputs": [],
      "stateMutability": "nonpayable",
      "type": "function"
    }
  ],
  "bytecode": "0x608060405234801561000f575f80fd5b506110e78061001d5f395ff3fe608060405234801561000f575f80fd5b506004361061004a575f3560e01c80631bfbd6b21461004e578063742f06881461007e578063850c1768146100b2578063c6cbc52a146100e6575b5f80fd5b610068600480360381019061006391906108ea565b610102565b60405161007591906109ba565b60405180910390f35b610098600480360381019061009391906109fd565b610278565b6040516100a9959493929190610acb565b60405180910390f35b6100cc60048036038101906100c791906109fd565b610447565b6040516100dd959493929190610b31565b60405180910390f35b61010060048036038101906100fb91906109fd565b6106b1565b005b5f808585858560405160200161011b9493929190610bf1565b6040516020818303038152906040528051906020012090505f805f8381526020019081526020015f206003015414610188576040517f08c379a000000000000000000000000000000000000000000000000000000000815260040161017f90610c7c565b60405180910390fd5b6040518060a00160405280878152602001868152602001858152602001848152602001600115158152505f808381526020019081526020015f205f820151815f0190816101d59190610e94565b5060208201518160010190816101eb9190610e94565b5060408201518160020190816102019190610e94565b50606082015181600301556080820151816004015f6101000a81548160ff021916908315150217905550905050807f609da1dc5a288b98d4d6e35acd31d48b7967dea867215e051fb04d53fcd686eb878787876040516102649493929190610f63565b60405180910390a280915050949350505050565b5f602052805f5260405f205f91509050805f01805461029690610cc7565b80601f01602080910402602001604051908101604052809291908181526020018280546102c290610cc7565b801561030d5780601f106102e45761010080835404028352916020019161030d565b820191905f5260205f20905b8154815290600101906020018083116102f057829003601f168201915b50505050509080600101805461032290610cc7565b80601f016020809104026020016040519081016040528092919081815260200182805461034e90610cc7565b80156103995780601f1061037057610100808354040283529160200191610399565b820191905f5260205f20905b81548152906001019060200180831161037c57829003601f168201915b5050505050908060020180546103ae90610cc7565b80601f01602080910402602001604051908101604052809291908181526020018280546103da90610cc7565b80156104255780601f106103fc57610100808354040283529160200191610425565b820191905f5260205f20905b81548152906001019060200180831161040857829003601f168201915b505050505090806003015490806004015f9054906101000a900460ff16905085565b5f60608060605f805f808881526020019081526020015f206040518060a00160405290815f8201805461047990610cc7565b80601f01602080910402602001604051908101604052809291908181526020018280546104a590610cc7565b80156104f05780601f106104c7576101008083540402835291602001916104f0565b820191905f5260205f20905b8154815290600101906020018083116104d357829003601f168201915b5050505050815260200160018201805461050990610cc7565b80601f016020809104026020016040519081016040528092919081815260200182805461053590610cc7565b80156105805780601f1061055757610100808354040283529160200191610580565b820191905f5260205f20905b81548152906001019060200180831161056357829003601f168201915b5050505050815260200160028201805461059990610cc7565b80601f01602080910402602001604051908101604052809291908181526020018280546105c590610cc7565b80156106105780601f106105e757610100808354040283529160200191610610565b820191905f5260205f20905b8154815290600101906020018083116105f357829003601f168201915b5050505050815260200160038201548152602001600482015f9054906101000a900460ff16151515158152505090505f816060015103610685576040517f08c379a000000000000000000000000000000000000000000000000000000000815260040161067c90611005565b60405180910390fd5b8060800151815f0151826020015183604001518460600151955095509550955095505091939590929450565b5f808281526020019081526020015f206004015f9054906101000a900460ff16610710576040517f08c379a000000000000000000000000000000000000000000000000000000000815260040161070790611093565b60405180910390fd5b5f805f8381526020019081526020015f206004015f6101000a81548160ff021916908315150217905550807f44d80a438cb4fa3b5aedbe551ce3d9382e37f446917b783e1dee70a03b4180e360405160405180910390a250565b5f604051905090565b5f80fd5b5f80fd5b5f80fd5b5f80fd5b5f601f19601f8301169050919050565b7f4e487b71000000000000000000000000000000000000000000000000000000005f52604160045260245ffd5b6107c982610783565b810181811067ffffffffffffffff821117156107e8576107e7610793565b5b80604052505050565b5f6107fa61076a565b905061080682826107c0565b919050565b5f67ffffffffffffffff82111561082557610824610793565b5b61082e82610783565b9050602081019050919050565b828183375f83830152505050565b5f61085b6108568461080b565b6107f1565b9050828152602081018484840111156108775761087661077f565b5b61088284828561083b565b509392505050565b5f82601f83011261089e5761089d61077b565b5b81356108ae848260208601610849565b91505092915050565b5f819050919050565b6108c9816108b7565b81146108d3575f80fd5b50565b5f813590506108e4816108c0565b92915050565b5f805f806080858703121561090257610901610773565b5b5f85013567ffffffffffffffff81111561091f5761091e610777565b5b61092b8782880161088a565b945050602085013567ffffffffffffffff81111561094c5761094b610777565b5b6109588782880161088a565b935050604085013567ffffffffffffffff81111561097957610978610777565b5b6109858782880161088a565b9250506060610996878288016108d6565b91505092959194509250565b5f819050919050565b6109b4816109a2565b82525050565b5f6020820190506109cd5f8301846109ab565b92915050565b6109dc816109a2565b81146109e6575f80fd5b50565b5f813590506109f7816109d3565b92915050565b5f60208284031215610a1257610a11610773565b5b5f610a1f848285016109e9565b91505092915050565b5f81519050919050565b5f82825260208201905092915050565b5f5b83811015610a5f578082015181840152602081019050610a44565b5f8484015250505050565b5f610a7482610a28565b610a7e8185610a32565b9350610a8e818560208601610a42565b610a9781610783565b840191505092915050565b610aab816108b7565b82525050565b5f8115159050919050565b610ac581610ab1565b82525050565b5f60a0820190508181035f830152610ae38188610a6a565b90508181036020830152610af78187610a6a565b90508181036040830152610b0b8186610a6a565b9050610b1a6060830185610aa2565b610b276080830184610abc565b9695505050505050565b5f60a082019050610b445f830188610abc565b8181036020830152610b568187610a6a565b90508181036040830152610b6a8186610a6a565b90508181036060830152610b7e8185610a6a565b9050610b8d6080830184610aa2565b9695505050505050565b5f81905092915050565b5f610bab82610a28565b610bb58185610b97565b9350610bc5818560208601610a42565b80840191505092915050565b5f819050919050565b610beb610be6826108b7565b610bd1565b82525050565b5f610bfc8287610ba1565b9150610c088286610ba1565b9150610c148285610ba1565b9150610c208284610bda565b60208201915081905095945050505050565b7f436572746966696361746520616c7265616479206578697374732100000000005f82015250565b5f610c66601b83610a32565b9150610c7182610c32565b602082019050919050565b5f6020820190508181035f830152610c9381610c5a565b9050919050565b7f4e487b71000000000000000000000000000000000000000000000000000000005f52602260045260245ffd5b5f6002820490506001821680610cde57607f821691505b602082108103610cf157610cf0610c9a565b5b50919050565b5f819050815f5260205f209050919050565b5f6020601f8301049050919050565b5f82821b905092915050565b5f60088302610d537fffffffffffffffffffffffffffffffffffffffffffffffffffffffffffffffff82610d18565b610d5d8683610d18565b95508019841693508086168417925050509392505050565b5f819050919050565b5f610d98610d93610d8e846108b7565b610d75565b6108b7565b9050919050565b5f819050919050565b610db183610d7e565b610dc5610dbd82610d9f565b848454610d24565b825550505050565b5f90565b610dd9610dcd565b610de4818484610da8565b505050565b5b81811015610e0757610dfc5f82610dd1565b600181019050610dea565b5050565b601f821115610e4c57610e1d81610cf7565b610e2684610d09565b81016020851015610e35578190505b610e49610e4185610d09565b830182610de9565b50505b505050565b5f82821c905092915050565b5f610e6c5f1984600802610e51565b1980831691505092915050565b5f610e848383610e5d565b9150826002028217905092915050565b610e9d82610a28565b67ffffffffffffffff811115610eb657610eb5610793565b5b610ec08254610cc7565b610ecb828285610e0b565b5f60209050601f831160018114610efc575f8415610eea578287015190505b610ef48582610e79565b865550610f5b565b601f198416610f0a86610cf7565b5f5b82811015610f3157848901518255600182019150602085019450602081019050610f0c565b86831015610f4e5784890151610f4a601f891682610e5d565b8355505b6001600288020188555050505b505050505050565b5f6080820190508181035f830152610f7b8187610a6a565b90508181036020830152610f8f8186610a6a565b90508181036040830152610fa38185610a6a565b9050610fb26060830184610aa2565b95945050505050565b7f4365727469666963617465206e6f7420666f756e6421000000000000000000005f82015250565b5f610fef601683610a32565b9150610ffa82610fbb565b602082019050919050565b5f6020820190508181035f83015261101c81610fe3565b9050919050565b7f436572746966696361746520646f6573206e6f74206578697374206f722069735f8201527f20616c7265616479207265766f6b656421000000000000000000000000000000602082015250565b5f61107d603183610a32565b915061108882611023565b604082019050919050565b5f6020820190508181035f8301526110aa81611071565b905091905056fea2646970667358221220abf3c7801e26f27a03e9a8152f78c7caf4def696b171cb994baf845bf973171364736f6c63430008150033",
  "immutableReferences": {},
  "source": "// SPDX-License-Identifier: MIT\r\npragma solidity ^0.8.0;\r\n\r\ncontract CertificateVerification {\r\n    struct Certificate {\r\n        string studentName;\r\n        string course;\r\n        string institution;\r\n        uint256 issueDate;\r\n        bool isValid;\r\n    }\r\n\r\n    mapping(bytes32 => Certificate) public certificates;\r\n\r\n    event CertificateIssued(bytes32 indexed certHash, string studentName, string course, string institution, uint256 issueDate);\r\n    event CertificateRevoked(bytes32 indexed certHash);\r\n\r\n    function issueCertificate(string memory _studentName, string memory _course, string memory _institution, uint256 _issueDate) public returns (bytes32) {\r\n        bytes32 certHash = keccak256(abi.encodePacked(_studentName, _course, _institution, _issueDate));\r\n        require(certificates[certHash].issueDate == 0, \"Certificate already exists!\");\r\n\r\n        certificates[certHash] = Certificate(_studentName, _course, _institution, _issueDate, true);\r\n        \r\n        emit CertificateIssued(certHash, _studentName, _course, _institution, _issueDate);\r\n        return certHash;\r\n    }\r\n\r\n    function verifyCertificate(bytes32 _certHash) public view returns (bool, string memory, string memory, string memory, uint256) {\r\n        Certificate memory cert = certificates[_certHash];\r\n        require(cert.issueDate != 0, \"Certificate not found!\");\r\n\r\n        return (cert.isValid, cert.studentName, cert.course, cert.institution, cert.issueDate);\r\n    }\r\n\r\n    function revokeCertificate(bytes32 _certHash) public {\r\n        require(certificates[_certHash].isValid, \"Certificate does not exist or is already revoked!\");\r\n        certificates[_certHash].isValid = false;\r\n\r\n        emit CertificateRevoked(_certHash);\r\n    }\r\n}\r\n",
  "sourcePath": "C:\\Users\\Kiragu\\projects\\Blockchain\\backend\\contracts\\Certificate.sol",
  "compiler": {
    "name": "solc",
    "version": "0.8.21+commit.d9974bed.Emscripten.clang"
  },
  "schemaVersion": "3.4.16",
  "updatedAt": "2025-03-03T13:12:47.148Z",
  "networkType": "ethereum",
  "devdoc": {
    "kind": "dev",
    "methods": {},
    "version": 1
  },
  "userdoc": {
    "kind": "user",
    "methods": {},
    "version": 1
  }
}